:020000041000EA
:1000000000B5324B212058609868022188439860DF
:10001000D860186158612E4B002199600221596106
:100020000121F02299502B49196001219960352056
:1000300000F044F80222904214D00621196600F024
:1000400034F8196E01211966002018661A6600F04E
:100050002CF8196E196E196E052000F02FF8012189
:100060000842F9D1002199601B49196000215960AB
:100070001A491B48016001219960EB211966A021F2
:10008000196600F012F800219960164914480160C1
:100090000121996001BC002800D000471248134993
:1000A000086003C880F30888084703B5996A0420EC
:1000B0000142FBD001200142F8D103BD02B5186610
:1000C0001866FFF7F2FF186E186E02BD00000240BE
:1000D000000000180000070000035F00212200005C
:1000E000F4000018222000A00001001008ED00E03C
:1000F00000000000000000000000000074B24E7A12
:1001000000200420F7010010C3010010C5010010F9
:10011000C1010010C1010010C1010010C101001097
:10012000C1010010C1010010C1010010C701001081
:10013000C1010010C1010010C9010010CB01001065
:10014000CD010010CD010010CD010010CD01001037
:10015000CD010010CD010010CD010010CD01001027
:10016000CD010010CD010010CD010010CD01001017
:10017000CD010010CD010010CD010010CD01001007
:10018000CD010010CD010010CD010010CD010010F7
:10019000CD010010CD010010CD010010CD010010E7
:1001A000CD010010CD010010CD010010CD010010D7
:1001B000CD010010CD010010CD010010CD010010C7
:1001C00000BE00BE00BE00BE00BE00BEEFF3058054
:1001D000103800BEF2EB887118A1051048A1051077
:1001E0003802001090A31AE71E481F49086006C88D
:1001F00081F3088810471D480068002801D019487D
:10020000F3E70DA40ECC002902D000F012F8F9E7B4
:100210001749184A002000E001C19142FCD116495B
:100220008847164988471649884700BEFDE701C937
:1002300001C29A42FBD3704748A10510E00000209C
:10024000A01A002008BB05100000042000000420B4
:1002500008BB05100010042000100420000000005E
:10026000704700000000000008ED00E0000000D032
:10027000A01A00203C710120199D0010BD0E001035
:10028000119D0010F8B5C04606480749091A8B10A1
:10029000C90FC91810B5491003D0044B002B00D06A
:1002A000984710BDA01A0020A01A002000000000EE
:1002B000054B10B5002B03D00449054800E000BFF2
:1002C000FFF7E2FF10BDC04600000000506F0120A4
:1002D00064F60110080010B500290AD0074B0A681F
:1002E0001A6017F09FFD064B0100180009F022FF6D
:1002F00010BD044809F096FEFAE7C046306F0120B1
:1003000068F6011088F6011010B500290ED10948D1
:1003100009F088FE0021002017F0A4FF322006F02B
:10032000B1FF0121002017F09DFF10BD024809F028
:1003300001FFFAE7B4F60110DCF6011030B5140045
:10034000A5B0002A0ED10123174D18482B7009F0D3
:1003500069FE2B78002B11D10121002017F082FFBC
:1003600025B030BD0022104B210011481A7009F051
:10037000E1FE0021002017F075FFF1E780210D4B11
:100380000D4A04A809F06CFC04A81EF055FF0B4AA6
:1003900083B210680A4A0B490292039401940094B4
:1003A00004AA1DF085FBD7E72E71012004F7011088
:1003B0007CF7011020F7011028F70110346F01209D
:1003C0000903001068F7011010B50020D02405F0D3
:1003D000A9FF0123240663620D4963610D481EF0E5
:1003E000EFF80121042005F0FDFE0121022005F0B7
:1003F000F9FE0121032005F0F5FE052005F092FF2E
:10040000202305486362636109F00CFE10BDC046FD
:1004100040420F0000C00340A0F70110F0B557465E
:100420004546DE464E46E0B5434B80469A461B782D
:100430000F00ADB0002B6DD0404B18689B460028D4
:1004400003D01EF0AFF800280CD13D4809F0EAFDBA
:100450000023524613702DB0F0BCBB46B246A946ED
:10046000A046F0BD2022002104A808F04DF8002F7E
:100470000FD0344B46460024994604AD0134280081
:1004800032784946E4B209F0D5FB01360235A7427D
:10049000F4D1B0227B009B1800226B44A03B1A7061
:1004A00006F08EFF002939D0FA220023920007F0CF
:1004B000F5FB254A04AB802100900CA809F0D0FB85
:1004C00004A9224809F036FE0CA9214809F032FEA1
:1004D0000CA81EF0B1FE5A4683B210681D4A0025D2
:1004E000029201221C490092039501950CAA1DF06D
:1004F000DFFA041E17D13A004146184808F00AF8FE
:10050000174B1F7006F05CFF0B00020015490A60D4
:100510004B60A0E7144809F085FD9CE7FA218900AB
:1005200007F07EFBC5E72100104809F003FE0B34FD
:10053000E1D153461D70DEE72E710120346F01209A
:10054000F4F70110B8F701102CF801105CF8011055
:1005500078F801100903001094F8011034400020CD
:100560002C710120501C0020C0F70110A0F80110D0
:1005700010B5104C104920001EF0D4F903211420AE
:1005800005F030FE0321152005F02CFE002201218C
:10059000142005F041FE00220121152005F03CFE4B
:1005A00070222100054802F0BBF8054809F03AFD29
:1005B00010BDC04638150020801A0600386F012093
:1005C000CCF80110F0B5DE4657464E464546E0B53C
:1005D000224885B009F026FD214D224CEB1C9B469C
:1005E000214B224F9A46224B224E9946224B984647
:1005F000224B0293224B03932978504602F094F841
:100600002A232000FF3323801E4A6733638081380A
:1006100000937C3B49460192FF3B1422FF3805F0D2
:1006200097FB4342434131683B70002814D1039A41
:10063000404609F07FFD85343220013506F022FE68
:10064000FF34013704365D45D6D105B0F0BCBB465A
:10065000B246A946A046F0BD029AE9E7FCF80110AF
:10066000DC210210B8380020386F01209C6F012077
:10067000381500202811002030F901104CF9011024
:100680002CF901103075000070B5684C82B02378E9
:10069000002B06D00021664802F046F8002800D062
:1006A00073E06378002B05D00121614802F03CF82B
:1006B00000283AD1A378002B05D002215C4802F033
:1006C00033F8002801D102B070BD6A4600235948B2
:1006D000911DD38005F04EFC0028F4D1564D6A469A
:1006E000A878564C0300D28814335B001A530A21B1
:1006F000013007F06DFAA970638D228D608FD218DA
:10070000A38D9B18E28DD218238E9B18628ED2186F
:10071000A38E9B18E28ED218238F9B18C0188B28AB
:1007200062D80020464B1860CDE76A460023454852
:10073000911DD38005F01EFC0028BBD13E4E6A46B9
:1007400070783E4D0300D2880A335B005A530A2169
:10075000013007F03DFA7170EB8AAA8AE88CD21852
:100760002B8B9B186A8BD218AB8B9B18EA8BD218F9
:100770002B8C9B186A8CD218AB8C9B18C0188B28BA
:100780003DD80020304B186094E76A4600232F487C
:10079000911DD38005F0EEFB002800D081E76A466A
:1007A000254E264D3078D28843005A530A21013015
:1007B00007F00EFA31706B882A88688AD218AB88E5
:1007C0009B18EA88D2182B899B186A89D218AB89A2
:1007D0009B18EA89D2182B8A9B18C0188B2819D825
:1007E00000201B4B18605CE70A2107F019FA0D384E
:1007F00080B207F0FBFD174907F0AFFD92E70A2131
:1008000007F00EFA0D3880B207F0F0FD114907F03D
:10081000A4FDB7E70A2107F003FA0D3880B207F00C
:10082000E5FD0C4907F099FDDBE7C0469C6F012010
:10083000386F0120403A0020F0270020FC360020CD
:100840005C320020BC3800205832002038370020AD
:100850006032002000002041F0B5DE4657464E468B
:100860004546E0B5764CC9B02378002B00D1A1E015
:10087000744D286800282ED01DF094FE00282AD040
:10088000714B1E689B46301C07F0D2FD6F4A704BBF
:1008900007F072FC00282AD06E4B1B68181C984683
:1008A00007F0C6FD694A6A4B07F066FC00281ED0B7
:1008B000694B1F68381C07F0BBFD654B634A07F0A6
:1008C0005BFC664B9A46002800D085E0644B994655
:1008D000644B984611E0644809F0A4FB00232370A0
:1008E00049B0F0BCBB46B246A946A046F0BD5B4B42
:1008F0009A465B4B99465B4B984606F061FD002992
:100900005CD0FA220023920007F0C8F94346069013
:10091000186807F08DFD4B4604900591186807F0A4
:1009200087FD534602900391186807F081FD0090FF
:10093000019180214D4E4900320008A809F090F93C
:100940005346186807F074FD4346060018680F0008
:1009500007F06EFD4B4602900391186807F068FDA2
:1009600032003B0000900191414809F0E3FB08A9E7
:10097000404809F0DFFB08A81EF05EFC3E4A002656
:1009800083B22868029201223C49009203960196A4
:1009900008AA1DF08DF8051E15D153465A461B684E
:1009A00013604A462B4B12681A6042462A4B126863
:1009B0001A6095E7324809F035FB91E7FA21890082
:1009C00007F02EF9A2E729002E4809F0B3FB0B35FA
:1009D00000D085E7267083E71868311C07F0B7FC64
:1009E0004000311C400807F0B8FC274907F0F8FC2C
:1009F0001B4B9946002820D11868414607F0A7FCF8
:100A000040004146400807F0A8FC1F4907F0E8FCF9
:100A1000144B9846002800D06FE71868391C07F07F
:100A200096FC4000391C400807F097FC164907F077
:100A3000D7FC002800D153E75FE70A4B98465CE7F4
:100A40002E710120346F0120204000209A9999993D
:100A50009999B93F1C4000202440002060320020BA
:100A6000583200205C320020F4F7011090F9011098
:100A7000D8F9011014FA01100903001038FA011016
:100A800054F9011048FA01109A99193E70B5184DA1
:100A90001848290009F04EFB17F000FC041E23D172
:100AA00017F082FB144809F0BDFA28001349144BD3
:100AB000144A17F087FB002810D10122124B13486B
:100AC0001A7009F0AFFA124B1868043017F0AAF93F
:100AD000104B0100180009F02DFB70BD0E4809F005
:100AE000A1FA094B1C70F8E70C4809F09BFAF4E7EF
:100AF00078FA011088FA0110D0FA0110F0FA01100A
:100B00003075000004004000387101201CFB01100A
:100B1000446F01203CFB0110FCFA0110A4FA011003
:100B200070B547488AB009F07DFA464D2B68002B16
:100B30001CD0454809F076FA28681DF033FD0028DE
:100B40005CD10A2417F09EFB013C642006F09AFB5E
:100B5000002CF7D128681DF047F9FA203B4B4000E4
:100B60001C702C6006F08EFB17F08CFB1DF034F926
:100B7000286000284FD0364C364E2100300017F048
:100B80007DF800280DD1344809F04CFA00232100EB
:100B90003000324A0DF05EFB053040D02368002B58
:100BA00030D0200017F03EF92D4B01002D4A1800DF
:100BB00009F0C0FA1822002104A807F0A5FC2A4B6E
:100BC00003AE03933C232868B381019600262100DD
:100BD000264B244A00961DF00BF9011E04D124482F
:100BE00009F020FA0AB070BD224809F0A3FA174BA9
:100BF00028681E701DF0F8F82E60F3E728681DF0D5
:100C0000BFFC9EE71C4809F00DFA28681DF0ECF8BF
:100C100000232B60E6E7194809F004FAE2E71848D8
:100C200009F000FA322602E0013E002EEAD06420EC
:100C300006F028FB17F026FB2368002BF4D0B0E762
:100C40004CFB0110346F01206CFB01102E71012050
:100C5000306F0120B8FB0110C8FB0110D502001055
:100C600050FC01105B07000078FC01103D030010F0
:100C7000BCFC011090FC01101CFC011090FB011049
:100C8000F8FB0110F8B5DE464E4645465746814B07
:100C9000E0B51E6875006D08281C07F0C9FB7E4A88
:100CA0007E4B07F069FA002800D1CFE07C4C311C64
:100CB000206807F04CFB40004008291C07F04DFB62
:100CC000061C784B1F687D006D08281C07F0B0FBE0
:100CD000714A724B07F050FA002800D1B3E0391C7A
:100CE000606807F034FB40004008291C07F035FB22
:100CF000071C6D4B1B685D006D08281C984607F0AB
:100D000097FB654A654B07F037FA002800D196E05B
:100D10004146A06807F01BFB40004008291C07F073
:100D20001CFB8146614B1B685D009A466D08E368B9
:100D3000281C984607F07CFB574A584B07F01CFAD2
:100D400000286DD05146404607F001FB40004008A6
:100D5000291C07F002FB8246554B1B685D009B4631
:100D60006D082369281C984607F062FB4A4A4B4BE2
:100D700007F002FA002844D05946404607F0E7FA47
:100D800040004008291C07F0E8FA8346494B646993
:100D90001B685D006D08281C984607F049FB3E4A19
:100DA0003E4B07F0E9F900281DD04146201C07F012
:100DB000CEFA4000291C400807F0CFFA051C3E4936
:100DC000301C07F00DFB0124002805D13A49381CDE
:100DD00007F006FB002843D02000F0BCBB46B2461B
:100DE000A946A046F8BD6000400807F021FB2A4A4A
:100DF0002A4B07F0C1F900250028E0D0FE25AD05FB
:100E0000DDE743465800400807F012FB224A234B17
:100E100007F0B2F9002820D0FE239B059B46B5E7DA
:100E200043465800400807F003FB1B4A1B4B07F0E2
:100E3000A3F900280ED0FE239B059A468CE7FE23DB
:100E40009B0599466EE7FE27BF0552E7FE26144C28
:100E5000B60536E700239A467EE700239B4695E7D2
:100E60004846154907F0BCFA0028B5D1504612494A
:100E700007F0B6FA0028AFD158460F4907F0B0FA8C
:100E80000028A9D10C49281C07F0AAFA431E984152
:100E90000400A1E7104000209A9999999999B93FC7
:100EA000CC3F0020144000201840002028400020A3
:100EB0002C400020304000209A99193EF0B5DE46C3
:100EC00057464E464546E0B5F9B009F057F8C948CF
:100ED00006F0D8F90A2009F059F8C74C200009F0AB
:100EE000A1F8C64809F09EF8C54809F09BF8C54826
:100EF00009F098F8C44809F095F8FFF7C7FDC34B0F
:100F000014931B78002B00D1E3E2FFF709FEFA20CF
:100F1000C00006F0B7F9BE4B98461B78002B00D1F5
:100F200025E1BC4809F07EF8FFF74EFA00F012FB0D
:100F30008246002800D1DAE2B74900F00BFDB7483D
:100F400009F070F8B64809F06DF8FFF711FBFFF7EC
:100F500039FBB44809F066F8B34DB44928001DF0D8
:100F6000E1FC0321122005F03DF90321132005F0D7
:100F700039F900220121122005F04EF90022012149
:100F8000132005F049F913221221A94809F0D2F8DB
:100F9000280005F00FF8A74809F044F8A64809F022
:100FA00041F8A64809F03EF8200009F03BF8A448B3
:100FB00009F038F8A349A44809F0BCF8A349A448AB
:100FC00009F0B8F8A34BA44819002A9309F0B2F825
:100FD000A24BA3481900179309F0ACF8A14809F0F7
:100FE00021F806F0EDF902000B009F490A604B6002
:100FF0002F9106F0E5F99D4B186059601B9306F0A0
:10100000DFF91090119106F0DBF91290139106F0C0
:10101000D7F900239946964B06002993954B0F006C
:101020002893954B2C93534601332D93934B2E933A
:10103000934B9B46934B2B93934B1593934B169348
:10104000934B3093934B3193934B3293934B339316
:10105000934B3493934B3593934B3693934B3793F6
:10106000934B1893934B1993934B1A9341E0434638
:101070001B78002B37D022002B00921BBB411100A4
:10108000002B00DD98E000D192E010981199220029
:101090002B00121A8B411100002B03DC23D1874B4C
:1010A000994220D98021189B199A38A808F0D8FDB8
:1010B00038A81EF0C1F8159A83B21068002216995C
:1010C0000392029101921799009238AA1CF0F0FC49
:1010D00049461A9809F02EF817F0D4F80A2006F0BD
:1010E000D1F81094119501239C466420E14406F048
:1010F000C9F817F0C7F843461B78002B03D1149B9F
:101100001B78002B3CD1FFF7BFFA06F059F9434694
:101110001B7804000D00002B09D002000B00129870
:101120001399121A8B411100002B58DC54D05046F1
:1011300001F064FA00289AD0504601F0E7FA00283E
:1011400095D053461978289B1B78994200D14FE1DE
:101150002D98FFF763F92E9808F064FF17F092F8C6
:101160000A2006F08FF8504601F0FAF97FE754485C
:1011700008F058FF5349544A544808F0DBFFD0E6C2
:1011800006F01EF91B9B04001A685B680D00801AAC
:1011900099410A1E03DCB6D14D4B9842B3D9299828
:1011A00008F040FF1B9B1C605D60FFF7B9FCAAE7DD
:1011B000484B994200D868E7584604F081FFFFF792
:1011C00061FD002800D089E043461B7826002F00EF
:1011D000002B00D059E786E73F4B9942A7D9FFF78C
:1011E0003BFB17F04FF80A2006F04CF812941395C9
:1011F0009DE7C046B80B000010FD01103CFD01103A
:1012000058FD011078FD01109CFD0110387101207E
:101210002E71012070FE011000C0034030FF01104C
:1012200058FF011088FF011030150020801A0600B9
:10123000B4FF0110E0FF0110FCFF011028000210B4
:101240003C00021094F801104C00021038FA011012
:101250005C000210700002107800021068F70110A4
:101260008800021098000210501C0020581C00201A
:10127000F0FC01102C71012034400020C400021049
:10128000CC3F0020F0000210346F01200903001051
:101290005801021010400020144000201840002087
:1012A000284000202C400020304000208401021003
:1012B00020F7011028F70110B001021080C3C90106
:1012C0000CFE0110B8FB01105B07000040FE01108E
:1012D0003F4B4C0020A1070040420F005B461868BE
:1012E00007F0A6F85B461C901D91586807F0A0F81F
:1012F0005B461E901F91986807F09AF85B46209015
:101300002191D86807F094F85B46229023911869E0
:1013100007F08EF85B4624902591586907F088F80D
:101320005B4626902791986907F082F806000F0027
:1013300006F046F8002900D1C6E0FA220023920008
:1013400006F0ACFC269A279B80210C960D9749004D
:101350000A920B93249A259B0E9008920993229A45
:10136000239B38A806920793209A219B0492059309
:101370001E9A1F9B029203931C9A1D9B009201933D
:101380002B9A08F06DFC38A81DF056FF159A83B211
:101390001068169A0027029201222A990092039758
:1013A000019738AA1CF084FB061E00D083E0309819
:1013B00008F038FE5B46319A1B6813605B46329A30
:1013C0005B6813605B46339A9B6813605B46349A94
:1013D000DB6813605B46359A1B6913605B46369A7F
:1013E0005B69136016F04EFF0A2005F04BFFEBE639
:1013F00000294ED052462C98527803789A4200D059
:10140000A6E6012945D05246437892789A4200D008
:101410009EE602293DD052468378D2789A4200D087
:1014200096E6032935D05246C37812799A4200D005
:101430008EE604292DD05246037952799A4200D083
:1014400086E6052925D05246437992799A4200D002
:101450007EE606291DD052468379D2799A4200D081
:1014600076E6072915D05246C379127A9A4200D0FF
:101470006EE608290DD05246037A527A9A4200D07D
:1014800066E6092905D05246437A927A9A4200D0FC
:101490005EE605F095FF2F9B1A685B68801A9941FC
:1014A000002905DC00D05EE6204B984200D85AE6C1
:1014B000534619784CE60100379808F03BFE0B368E
:1014C00090D143461F708DE7FA21890006F0A8FBF2
:1014D00038E7174808F0A6FD164808F0A3FD0120DC
:1014E00079B0F0BCBB46B246A946A046F0BD124852
:1014F00008F098FD114808F095FD0421104808F007
:1015000019FE03210F4808F015FE02210E4808F0CD
:1015100011FE05210D4808F00DFE51460C4808F05B
:1015200009FEFA20800005F0ADFEFAE7BFC62D00E7
:10153000C8FD0110FCFD011094FE0110BCFE01105D
:10154000E0FE0110F0FE011000FF011010FF01107D
:1015500020FF011030B5094C0948226800255300CE
:101560009B18DB001900103109180438C018052336
:1015700001320D802260036130BDC046681D00202D
:10158000046F0120F0B5DE46454657464E46E0B5AD
:101590000500802001438B46286983B0C046C046C1
:1015A000C04601218140D020000680468161C046AE
:1015B000C046C046002A33D092461C009A446B466F
:1015C0009E1DDF1D01239946002333705B463B704F
:1015D0002B69C046C046C0464A469A401300424660
:1015E0009361C046C046C04601223900E8681DF03C
:1015F000DFFF012332000021E8681DF0A1FF2B6905
:10160000C046C046C0464A469A401300424653610F
:10161000C046C046C0463378237001345445D3D108
:101620002A69C046C046C04601239340D022120614
:101630005361C046C046C04603B0F0BCBB46B2468C
:10164000A946A046F0BDC046F0B5DE4657464E4618
:1016500045469B460223E0B583B000AFBB80040043
:10166000894690460369C046C046C04601252A0007
:10167000D0269A403606B261C046C046C046022215
:10168000391DC0681DF094FF2369C046C046C0469E
:101690002A009A407261C046C046C046AA4BBB8031
:1016A0002369C046C046C0462A009A40B261C0467F
:1016B000C046C0460222E068391D1DF079FF23694B
:1016C000C046C046C0462A009A407261C046C04625
:1016D000C0460023FB7094333B712369C046C0466B
:1016E000C0462A009A40B261C046C046C0460122A8
:1016F000391DE0681DF05CFF01230021E068FA1C41
:101700001DF01EFF2369C046C046C0462A009A400D
:101710007261C046C046C0461423FA783B71943BC0
:1017200013437B712369C046C046C0462A009A40D5
:10173000B261C046C046C0460222E068391D1DF0B5
:1017400037FF2369C046C046C0469D407561C0460C
:10175000C046C04601236E4643449A460733DB0821
:10176000DB00F31A9D4612236D462B704346002B77
:1017700004D042464946681C06F0CCFE2369C046A8
:10178000C046C046012290469A401300D02212065D
:1017900091469361C046C046C04652462900E06863
:1017A0001DF006FF2369C046C046C04642469A4027
:1017B00013004A465361C046C046C046634BB54617
:1017C000BB802369C046C046C04642469A401300CB
:1017D0004A469361C046C046C0460222E068391DB1
:1017E0001DF0E6FE2369C046C046C04642469A4008
:1017F00013004A465361C046C046C046002399467E
:101800008A339A46524D04E0013DADB2002D00D11D
:1018100097E04B46FB7053463B712369C046C04678
:10182000C0464246D0269A403606B261C046C046FF
:10183000C0460122391DE0681DF0BAFE01230021D7
:10184000E068FA1C1DF07CFE2369C046C046C04615
:1018500042469A407261C046C046C046FB785B076C
:10186000D2D50223BB802369C046C046C04642464B
:101870009A40B261C046C046C0460222E068391DA7
:101880001DF096FE2369C046C046C04642469A40B7
:101890007261C046C046C0464B46FB70C4233B71D4
:1018A0002369C046C046C04642469A40B261C0461F
:1018B000C046C0460122391DE0681DF079FE0123B3
:1018C0000021E068FA1C1DF03BFE2369C046C046BB
:1018D000C04642469A407261C046C046C0465A461B
:1018E000FB7813704B46FB70C2233B712369C046E3
:1018F000C046C04642469A40B261C046C046C04655
:101900000122391DE0681DF053FE01230021E0682B
:10191000FA1C1DF015FE2369C046C046C04642466B
:101920009A407261C046C046C0465A460020FB78C5
:101930005370BD4603B0F0BCBB46B246A946A046B4
:10194000F0BD0320F5E7C0460A04000002030000D2
:1019500088130000F0B59E4FD02583B00400C76007
:101960000126FA202D06AE61800005F08BFC3220A6
:101970006E6105F087FC052004F0D4FC20233800BC
:101980006B6294496B611CF01BFE022292497B68DA
:101990000A603968134005325140C8320A408F4905
:1019A00002200A608E4A0121136004F01BFC012111
:1019B000032004F017FC0121042004F013FC894BE0
:1019C00001AF3B802369C046C046C04632009A4002
:1019D000AA61C046C046C04602223900E0681DF038
:1019E000E7FD2369C046C046C04632009A406A619E
:1019F000C046C046C0467C4B3B802369C046C046BB
:101A0000C04632009A40AA61C046C046C046022283
:101A10003900E0681DF0CCFD2369C046C046C046D1
:101A200032009A406A61C046C046C0466F4B3B8058
:101A30002369C046C046C04632009A40AA61C046EB
:101A4000C046C04602223900E0681DF0B1FD23699E
:101A5000C046C046C04632009A406A61C046C04691
:101A6000C046D6239B003B802369C046C046C04683
:101A700032009A40AA61C046C046C04602223900E0
:101A8000E0681DF095FD2369C046C046C04632009F
:101A90009A406A61C046C046C046554B3B802369A8
:101AA000C046C046C04632009A40AA61C046C04601
:101AB000C04602223900E0681DF07AFD2369C04665
:101AC000C046C04632009A406A61C046C046C04621
:101AD000484B3B802369C046C046C04632009A400E
:101AE000AA61C046C046C04602223900E0681DF027
:101AF0005FFD2369C046C046C04632009A406A6115
:101B0000C046C046C0463C4B3B802369C046C046E9
:101B1000C04632009A40AA61C046C046C046022272
:101B20003900E0681DF044FD2369C046C046C04648
:101B300032009A406A61C046C046C04600236A46E9
:101B4000D370A8333B702369C046C046C0463200FC
:101B50009A40AA61C046C046C04601223900E068EA
:101B60001DF026FD6A4601230021E06803321DF0C6
:101B7000E7FC2369C046C046C04632009A406A610D
:101B8000C046C046C0466B46DB78DA4392071CD09D
:101B900028223A70032213437B702369C046C04653
:101BA000C04632009A40AA61C046C046C0460222E2
:101BB0003900E0681DF0FCFC2369C046C046C04601
:101BC0009E406E61C046C046C04603B0F0BDC046F0
:101BD00000C0034040420F0004F0034000D0034027
:101BE00004E00340020F00005480FFFF56A9FFFFEE
:101BF0005AE8FFFF2A400000223D0000F0B557469A
:101C00004E464546DE46E0B58BB002AFFA60BB609B
:101C1000182230239B18DB191E7840239B18DB19F0
:101C20001B7804007B6144239B18DB191B788846D2
:101C30007B607B6D002B00D10AE21B787A69120170
:101C40009B18DBB23B610223BB832369C046C046BD
:101C5000C0460122D02591469A402D06AA61C04671
:101C6000C046C0461C230222F918E0681DF0A0FC03
:101C70002369C046C046C0464A469A406A61C0468B
:101C8000C046C0466F4BBB832369C046C046C046B2
:101C90004A469A40AA61C046C046C0461C2302225A
:101CA000F918E0681DF084FC2369C046C046C046B0
:101CB0004A469A406A61C046C046C0460023FB7649
:101CC00094333B772369C046C046C0464A469A4093
:101CD000AA61C046C046C0461C230122F918E0682C
:101CE0001DF066FC1B2201230021E068BA181DF0DC
:101CF00027FC2369C046C046C0464A469A406A61EE
:101D0000C046C046C0461423FA7E3B77943B13433B
:101D10007B772369C046C046C0464A469A40AA61BE
:101D2000C046C046C0461C230222F918E0681DF0D8
:101D30003FFC2369C046C046C0464A469A406A6195
:101D4000C046C046C0466A46731C9B460733DB0844
:101D5000DB00D31AEA469D4602AB994612234A4657
:101D60001370002E05D009203200B968684406F0CF
:101D7000D1FB2369C046C046C04601263200D025AB
:101D80009A402D06AA61C046C046C0465A464946FA
:101D9000E0681DF00DFC2369C046C046C046320015
:101DA0009A406A61C046C046C0461A239946D54645
:101DB0003B773B697B772369C046C046C04632000B
:101DC0009A40AA61C046C046C0461C230222F918A8
:101DD000E0681DF0EDFB2369C046C046C0463200F6
:101DE0009A406A61C046C046C04602233B774346DC
:101DF0007B772369C046C046C04632009A40AA613C
:101E0000C046C046C0461C230222F918E0681DF0F7
:101E1000CFFB2369C046C046C04632009A406A6183
:101E2000C046C046C04643460C2B00D112E1FA23FF
:101E3000DB00994600239A4688339B46FB680126BF
:101E400098460CE0087F00001E4200D0F7E0012316
:101E50005B429C46E1444B46002B00D1EFE05346E9
:101E6000FB765B463B772369C046C046C0463200DE
:101E7000D0259A402D06AA61C046C046C0461C2304
:101E80000122F918E0681DF093FB1B2201230021B9
:101E9000E068BA181DF054FB2369C046C046C0462E
:101EA00032009A406A61C046C046C0464246FB7E48
:101EB0001342C9D05346FB768C233B772369C04637
:101EC000C046C04632009A40AA61C046C046C046DD
:101ED0001C230122F918E0681DF06AFB1B22012374
:101EE0000021E068BA181DF02BFB2369C046C046EC
:101EF000C04632009A406A61C046C046C046FB7E7A
:101F00009846132342461A4091464246134200D057
:101F1000EBE0FB6C002B00D1E2E03B6D002B00D12D
:101F2000DEE04B46FB7694233B772369C046C046F0
:101F3000C04632009A40AA61C046C046C0461C2333
:101F40000122F918E0681DF033FB1B220123002158
:101F5000E068BA181DF0F4FA2369C046C046C046CE
:101F600032009A406A61C046C046C0463B6DFA7E68
:101F70001B78934200D2C1E03B6D12211A707B693D
:101F800020000093FB6CFFF7FDFA4B46FB7698238D
:101F90003B772369C046C046C04632009A40AA61DA
:101FA000C046C046C0461C230122F918E0681DF057
:101FB000FFFA1B2201230021E068BA181DF0C0FAC5
:101FC0002369C046C046C0469E406E61C046C046BA
:101FD000C0460723FA7E4146134008220A40796D25
:101FE000002900D185E00B70002A00D084E07A68D7
:101FF000002A00D17BE03A6D1278012A00D17FE0FF
:102000001BD9002B19D1023A1C332000F96CD2B233
:10201000FB18FFF719FB002812D1FA6C3B6D9446B0
:102020001B7863449A1E11783A7F914205D1013B97
:102030001A787B7F9A4200D159E0072000E0032004
:10204000BD4609B0F0BCBB46B246A946A046F0BDAD
:102050000023F3E50023FB769A333B772369C046E0
:10206000C046C04632009A40AA61C046C046C0463B
:102070001C230122F918E0681DF09AFA1B220123A3
:102080000021E068BA181DF05BFA2369C046C0461B
:10209000C04632009A406A61C046C046C0464B46C0
:1020A0003B778023FA7E5B4213437B772369C046EC
:1020B000C046C04632009A40AA61C046C046C046EB
:1020C0001C230222F918E0681DF072FA2369C04649
:1020D000C046C0469E406E61C046C046C046A6E6A9
:1020E00043461807C00F4000AAE70120A8E70020D8
:1020F000A6E7002A00D17AE70220A1E704209FE7A3
:10210000042B00D099E7FF209AE7C046F0B5DE46E1
:102110004E4645465746E0B593B00600884693467E
:102120000A91502A00D9C0E12022002306A8801875
:1021300003700FAD9C332B703369C046C046C04658
:1021400001242000D02798403F06B861C046C04611
:10215000C0462900F0681F3A1DF02AFA0123002129
:10216000F0680EAA1DF0ECF93369C046C046C046BF
:10217000200098407861C046C046C046202206AB89
:102180009B181A781C232B70633313406B703369D0
:10219000C046C046C04622009A40BA61C046C0460A
:1021A000C04602222900F0681DF002FA3369C046D9
:1021B000C046C0469C407C61C046C046C046932392
:1021C0002B705B46002B3BD0424612785BB2042A50
:1021D00000D9B8E101220021924600220B9107208C
:1021E0001840411E8841D91040180021C0B28846CD
:1021F00000282BD0011C042800D904210024984673
:102200000220C9B206940A9C471CA4466244547832
:102210002C5401290DD0841CA1469478EC55022938
:1022200007D04C46D77803302F55042901D11279B5
:102230002A54069A002A09D008335BB2984605E072
:1022400000230B9301339A46002398465346089384
:102250005B46C34609935B461F2B00DD20E1072444
:102260001C4006AB5C775B46DB100233DBB21A0125
:10227000A2186A702200511E8A419A18D2B207929F
:10228000EA1806920922D31A2201DBB2A21806A983
:102290008C461E27202067443B701A2309180B70B8
:1022A000634621215B181A703369C046C046C04698
:1022B000012291469A401300D02212069246936161
:1022C000C046C046C0460222F0680EA91DF070F953
:1022D0003369C046C046C0464A469A40130052463B
:1022E0005361C046C046C046002306AA94460593E3
:1022F00098461D3363440393069B04940193079B04
:10230000302200930C212B0030000297FFF776FC5F
:102310000400022800D175E000286BD120239846E4
:102320005B461F2B21DC7023EA786B70AB782900A9
:1023300053402A79300053406A79534006AA9446A4
:10234000AB712B2307226344FFF77EF9041E51D1A2
:1023500006AB587706A82A218446614406910921D4
:10236000C34600220323079191E7089B9A46099BE5
:102370009B46AB78882B00D1D1E00A990B9A8C460A
:1023800062445370EB7893702B79D3706B7913712F
:102390003B780B93032B00D0DDE006AB5B7F002B7B
:1023A00000D0D8E006AA9446069F263301223900C1
:1023B00030006344FFF748F9041E1BD1AA787B78EC
:1023C0009A4200D0C9E0EA78BB789A4200D0C4E0D3
:1023D000042214003B781C401A4200D167E05346A7
:1023E0000133DBB29A46022B00D175E0032B00D1FA
:1023F00065E00524200013B0F0BCBB46B246A946F8
:10240000A046F0BD424606AB2021DA779C2306AAFF
:10241000521813703369C046C046C0464A469A40B7
:10242000130052469361C046C046C04601220EA921
:10243000F0681DF0BDF806A98C461F22012300217B
:10244000F06862441DF07CF83369C046C046C0465F
:102450004A469A40130052465361C046C046C046A1
:1024600006ABDA7F9306C5D41F210B00134011423F
:1024700018D01A009345BCDA0720013A1040020038
:1024800059B28B46511E8A4101218140DB089B18BD
:102490000133EA5C0A43EA545B461F2B00DCDEE6AC
:1024A000D84640E720222023E4E70624A2E70A9A40
:1024B000D37253465B005344013313709AE75A4674
:1024C0009723303A2B7053B2DB430621DB171340BE
:1024D0005BB206220B9182E695232B705B46002BA4
:1024E0001AD05A46183A53B2DB430A99DB170978D7
:1024F00013405BB20322072900D870E60720882129
:102500001840A970411E8841D9104018C0B2002857
:1025100010D10823984699E6032200235FE60A9A21
:102520000B9B9446EA7863445A702A799A706A79C8
:10253000DA702DE7011C03280BD8012498460320EC
:10254000C9B206945FE60122002192460B91002257
:10255000D4E70321F1E701244CE707244AE7C0460A
:10256000F0B583B000236A4601AED3709033337068
:1025700004000369C046C046C04601252A00D02792
:102580009A403F06BA61C046C046C04601223100AB
:10259000C0681DF00DF86A4601230021E06803328F
:1025A0001CF0CEFF2369C046C046C0462A009A40B0
:1025B0007A61C046C046C0466B461022DB78327056
:1025C000083A934373702369C046C046C0462A0048
:1025D0009A40BA61C046C046C04602223100E06857
:1025E0001CF0E6FF2369C046C046C0469D407D61A1
:1025F000C046C046C04603B0F0BDC046F0B5DE469A
:1026000057464E464546E0B51926022389B06E442A
:10261000337018336B449B4626235A461B25137090
:1026200000236D449A462B7007AF9C333B70040027
:102630000369C046C046C046012290469A40130036
:10264000D022120691469361C046C046C046012280
:102650003900C0681CF0ACFF01232A000021E068AB
:102660001CF06EFF2369C046C046C04642469A40F1
:1026700013004A465361C046C046C0461C232A7810
:102680003B70633313407B702369C046C046C0462D
:1026900042469A4013004A469361C046C046C0462F
:1026A00002223900E0681CF083FF2369C046C0465F
:1026B000C04642469A4013004A465361C046C0464F
:1026C000C04607232B70534605930493434630229C
:1026D00000930C215B462000039502960197FFF7BB
:1026E0008DFA00280DD13378022B06D009B0F0BC4A
:1026F000BB46B246A946A046F0BD287843425841A1
:10270000F4E7023843425841C0B2EFE710B5002267
:102710000100FFF7FBFC43425841C0B210BDC04668
:10272000016002717047C04610B5030084B00020FC
:1027300007290FD801240F228C406A4414701C68AA
:1027400019790123009020001CF014F9013843424C
:102750005841C0B204B010BDF0B5D6464F4646460B
:10276000C0B5037A82B00B706B460F009A1CF8213B
:10277000060003F07DFA041E06D0200002B0E0BC83
:10278000BA46B146A846F0BD0421300001AA03F0C4
:102790007BFA041EF1D16B465988002900D088E0ED
:1027A000B86800233061202130003B7301AA03F098
:1027B0005FFA041EE1D16B469B88002B74D1B3698C
:1027C0003B610023390030003375143100F026FFDF
:1027D000041ED2D124239846043B9A46083B9946CE
:1027E0000025B844B244B944032D5BD036DC012D3A
:1027F00040D0022D30D1736B424608C253469046FA
:102800004A465B5D53550135062DEDD1012130005F
:1028100001AA03F021FA041EAFD16B46AE221B7948
:102820005200B354DB09E83ABB5408323000B354C9
:10283000391D02F03FFD041E9FD1310038001C22DB
:1028400044313C301CF034FC310058371C22380035
:1028500060311CF02DFC90E7F36ACDE76421300075
:1028600001AA03F005FA041E00D086E76B469B8898
:102870005B02C1E74421300001AA03F0F9F9041E0C
:1028800000D07AE76B469B885A02002B16D1336B37
:10289000BB6200232122B3547B7604239C4602258D
:1028A000E044A8E7B36BA7E7DB003B61B36101231A
:1028B00088E7019805F0B4F9B86072E7BA620123BD
:1028C0003263E7E7F0B5C64600B50022A0B0882124
:1028D000050003F087F98E220023FA215200AB5441
:1028E00089006232A95271497E3AA9502800AB6131
:1028F00002A9FFF731FF041E29D16B4618819623E8
:10290000DB0418936A4B119012936A4B28001993B9
:1029100080239B021393E1239B041A93664B782236
:102920001493664B02A91B93654B08301593654BB6
:102930001C93A0231B031693FA235B041D93F0231F
:102940001B031793C8235B041E9305F0E3FDB0231C
:102950005D4A5B00EA50FA2204335200EA52A02298
:10296000012604331201EA521433EE54012280216D
:10297000280003F037F901220700FF21280003F0A7
:1029800031F9002207430021280003F02BF96B46A0
:102990003C4364B2DF1D3A0091210443280003F058
:1029A0005BF9B3233A785B0064B2EA540021012258
:1029B0000443280003F016F964B20022FF21044307
:1029C000280003F00FF964B204430022802128009C
:1029D00003F008F964B2204340B200280AD1202352
:1029E000EE542A6B4421520A280092B203F006F9F1
:1029F000002803D020B080BCB846F0BD02232124BB
:102A0000FF332E55FE226B8460210023280003F043
:102A100001F90028EED124270023EF2260212800AD
:102A2000EE5503F0F7F80028E4D12523FE22EE54FA
:102A30009846688460212800233B002603F0EAF8CA
:102A40000028D7D11023EF2260212800EE5503F093
:102A5000E1F80028CED14346EE5490235B03EB62AD
:102A60002B5D002B19D18023DB012B638C239B036F
:102A70006B630023FF22AB635D33FF33EA54012114
:102A8000280003F0AFF8AF2301225B00EA540028CE
:102A9000B0D14223FF33E854ACE720224421280080
:102AA00003F0ACF80028DED0A4E7C046A47009000B
:102AB00033B3000000004C04CCCC03000000EE0255
:102AC000CC4C07000000260264008403152906D8B8
:102AD000044BCB40DB0702D5017200207047082071
:102AE0004042FBE70B00300010B502F047FB10BD81
:102AF00010B502F0EBF810BD10B502F01FFB10BDD1
:102B0000F0B583B0002317006A460D00D371012190
:102B10000732060003F0A0F8041E1CD16B46DB79D7
:102B2000012F1BD0042D50D8294AAD005259974689
:102B30007F251D405BB2002B0DDA2A0001213000F9
:102B400003F050F8041E06D1AE235B00F5543000AC
:102B5000F16802F013FB200003B0F0BD042D34D85F
:102B60001C4AAD005259974640221D0095431A4217
:102B7000E3D1F0E704221D0095431A42DDD1EAE7D4
:102B800028221D0095431A42D7D1E4E710221D00E8
:102B900095431A42D1D1DEE740251D43AB42CCD14B
:102BA000D9E704251D43AB42C7D1D4E728251D43EF
:102BB000AB42C2D1CFE710251D43AB42BDD1CAE71E
:102BC00080251D43AB42B8D1C5E704246442C2E767
:102BD000E0210210F4210210F0B5A3B00400782225
:102BE000002104A805F090FC002300226946200083
:102BF000CB80CA7001AD01212A70029301F072FAF4
:102C00004023FF33E15C0133E25C012A02D84DD05E
:102C10000C294DD92A00200002A900F017FF002836
:102C20003ED1BE235B00E35C002B3BD07949200002
:102C300002F0DEFB002833D104220A21200002F03A
:102C4000D1FF00282CD10023EF228421200002F0A4
:102C5000E1FF002824D183230422002607275B00FC
:102C6000E25401220B21200002F0BCFF00220500EB
:102C70000B21200002F0B6FF1321054303AA200018
:102C800002F0EAFF6B466DB21B7B2843013640B26F
:102C9000F6B21F4210D0032E00D1B8E00028E0D0D9
:102CA00023B0F0BD7933FF33E158C0E72029B1D814
:102CB000200000F005FDB2E7032E00D1A7E00028B8
:102CC000EED10122FF21200002F08CFF6B460500AF
:102CD0009A1D8421200002F0CBFF00220543FF2132
:102CE000200002F07FFF6DB2284340B20028D7D108
:102CF0006B468022DB8852001B012000A35004A9F0
:102D0000FFF72AFD0028CBD16B4609212000DA1CF1
:102D100002F0A2FF0028C3D16B46DA7801231340EA
:102D20006A46D3705E222000FF32A35404A9E53A1C
:102D3000083005F0EFFB6B4601212000DA1C02F0A1
:102D40008BFF0028ACD16B46DA78AE235B00E254EF
:102D50006B460121187303AA200002F07DFF6B4629
:102D60001D7B00289CD1102215420FD095432A00CC
:102D70000121200002F036FF002800D090E7AE23AA
:102D80005B00E5542000E16802F0F8F9002202211E
:102D90002000FFF7B5FE002800D081E7AF23032510
:102DA0005B00E5546B4601005A1D200002F0C6F995
:102DB000002800D074E76B465A798A235B00E254FE
:102DC0006B46012120005A1D02F0B8F9002800D0FE
:102DD00066E76B465A7986235B00E254290020009F
:102DE00003AA01F0A9FE002800D059E78823039A1E
:102DF0005B00E2500421200003AA01F09DFE0028A0
:102E000000D04DE78423039A5B00E25048E70C2092
:102E1000404245E7EC12002010B582B06A4600231C
:102E20000C00D3710121073202F016FF002810D1E7
:102E30006B460122DB79191111402170D910114024
:102E4000A17099101140617099110A40DB09E2707C
:102E5000237102B010BDC046037D00200B70704787
:102E6000F8B505000C001600052941D8002A0ED03F
:102E70000B0000210A339B00C3185A688C460023BC
:102E80000127052C31D81C48A10041588F46022249
:102E90000027944610230022F3E7EF226021280048
:102EA00002F0B8FE002805D1002E0FD12C192034D5
:102EB00026700020F8BD6346FE226021280002F043
:102EC000A9FEEFE72323EF54002EEFD001232D19A5
:102ED00020352B70EDE72223EF54E5E7520A442119
:102EE000280092B202F08AFEDCE72023EF54DBE7F1
:102EF00004204042DEE7C04608220210052905D81A
:102F000040182030037800201370704704200023FD
:102F10004042F9E7431820331B7870B506000C00D7
:102F20001500002B06D005291CD8104A8B00D35859
:102F30009F46C56200200A34A4003419656070BD44
:102F40006A0A642192B202F059FE0028F7D1F1E733
:102F50006A0A442192B202F051FEF6E74563E9E7BE
:102F60008563E7E704204042E9E7C04620220210DB
:102F700030B50400150083B0052931D81A4B8900FB
:102F80005B589F466B4664219A1D02F071FE002833
:102F900004D16B46DB885B022B60002003B030BDA0
:102FA000C36A2B60F9E7436B2B60F6E7836B2B60FA
:102FB000F3E76B4644219A1D02F05AFE0028EDD13A
:102FC0006B46DB885A02002B04D1236B2B60212334
:102FD000E254E2E72A60212322630122E254DCE783
:102FE00004204042DAE7C0463822021010B501231F
:102FF00000F09CFC10BDC0468323F0B55B00C35CB1
:1030000004000D0083B0022B26D0032B0ED000202D
:10301000012B09D16B469E1D32000E21200002F0CB
:1030200027FE3788002829D003B0F0BD6B460E215B
:103030009A1D02F01DFE0028F6D16B460C212000DF
:103040009A1D02F015FE0028EED1002D23D020009D
:103050001F4902F0CDF9E7E76B460E219A1D02F0F9
:1030600007FE0028E0D16B460C219A1D200002F0DB
:10307000FFFD6B46DB881B05D6D0E4E732000C2150
:10308000200002F0F5FD134B7F041F40FF231B04BB
:103090009F42C9D9D7E70422FF21200002F0A2FDF8
:1030A000002205007021200002F09CFD0022FF217B
:1030B0000543200002F096FD6DB2054300228021F9
:1030C000200002F08FFD6DB2284340B2ACE7C0464D
:1030D000341100200000FE1FF0B5C646040000B504
:1030E000012282B08021057A02F07CFD0122FF21BD
:1030F000200002F077FD00220021200002F072FD86
:10310000B3235B00E25C9121200002F06BFD012201
:103110000021200002F066FD0022FF21200002F0C5
:1031200061FD00228021200002F05CFD012D34D0E1
:10313000032D24D0002D3ED101220021200002F0D9
:1031400051FD6B46DD1D01232B70002813D1FA239E
:10315000DB000126012798462A000021200002F00A
:103160007BFD2B7801361F4232D0002830D14645F6
:10317000F2D10720404202B080BCB846F0BD002822
:1031800021D004220021200002F02CFD0028F2D1E1
:10319000AF2304225B00E254EDE700280ED00222A8
:1031A0000021200002F01EFD0028E4D1AF230422FC
:1031B0005B00E254DFE708204042DCE70121200009
:1031C000FFF71AFFEBE701212000FFF715FFD8E713
:1031D000FA23DB009E42CED1CBE7C046832330B535
:1031E0005B00C35C0C0083B0042B0ED06B46142133
:1031F000DA1D02F031FD002805D16A460123D2799B
:10320000134213D0237003B030BD6B46DD1D2A007E
:10321000132102F021FD072318212A7813401142BF
:1032200009D1042B04D000232370ECE72070EAE7D7
:10323000033B2370E7E706204042F2E7F0B5DE46A5
:103240004E4645465746E0B591B006AE0C230C00FD
:1032500032001421050002F0B3FC031E78D1636034
:103260003389FA215BBA9BB25B0223617388F788CA
:103270005BBA9AB2A382337890469946BF235E2206
:103280007FBABFB27F02A0752060E76070895B00E3
:10329000EB5A40BAFF32AE5C80B289008B4214D048
:1032A0005843F530FF3004F093FC2B7D002B0BD0FE
:1032B0004346298B59430912B94250D00004000CEF
:1032C0007843791A04F0ACFC80B2002E02D086015B
:1032D000F6B2800802AA94460F2363442081E67563
:1032E0003A000193494643462800009402F01AFB35
:1032F00000282DD109AA93462A00594602ABDB7B50
:10330000803203932376C8CAC8C1C8CAC8C1176827
:1033100080350F60E668A768B1462669BA46B046B0
:10332000A68AE77DB4465E466468039B7460544693
:103330000B944C460C9444460D94644633765B469D
:10334000B482F775D0CBD0C5D0CBD0C50B68136095
:1033500011B0F0BCBB46B246A946A046F0BD002E57
:1033600002D000260148B5E70148B3E7AE080000E7
:10337000E08A00000023F0B583B0037205000C0062
:10338000FFF7AAFE00280ED1280000F08DFE0028CD
:1033900009D1AF2303225B0021002800EA54FFF784
:1033A0004DFF002801D003B0F0BD00260727012201
:1033B0000B21280002F016FC002204000B2128003B
:1033C00002F010FC6B460443DA1D1321280002F0C2
:1033D00043FC6B4664B2DB792043013640B2F6B25F
:1033E0001F4204D0032E04D00028E0D0DBE7032ED8
:1033F000D9D10C204042D6E7F0B5060000250727BA
:1034000083B001220B21300002F0ECFB002204000B
:103410000B21300002F0E6FB6B460443DA1D13215A
:10342000300002F019FC6B4664B2DB7920430135B1
:1034300040B2EDB21F4205D0032D05D00028E0D0E8
:1034400003B0F0BD032DFBD10C204042F8E7C0468D
:1034500010B500F0FBFA10BDF0B5DE465746454604
:103460004E46E0B589B00493129B17009B46139B10
:103470000500149A002B00D18BE000230393023344
:103480009C460233029101269A4659460595072427
:10349000CD080C402F2900D9B5E008239846083301
:1034A0002A0099468B460194BB5C954235D01E425A
:1034B00000D09FE06046184200D09EE0504618427F
:1034C00000D09DE041460024032019423ED1201D3A
:1034D000042C13D04946194238D1601D032C0DD05D
:1034E0002021194232D1A01D022C07D059062DD41B
:1034F000DB09012C02D0002B00D086E00132062A25
:10350000D2D15B46149A13603220404209B0F0BC1D
:10351000BB46B246A946A046F0BD01990B41180032
:103520000C00DBB2304273D1481C0729E6D061465B
:1035300019420BD1A01C062CE0D05146194205D1EE
:10354000E01C052CDAD041461942C0D05946D200C1
:1035500012181000B430304B80098000C358581E38
:103560008341029883424ED1072330001340984094
:103570000300049CD108605C03436354039B511C0B
:10358000139A01330393934200D080E78B46059D45
:10359000149A5B46B021136028000623049A02F0B7
:1035A000FDFA0028B2D10623B02106AA280002F0B5
:1035B00007FB049906AB1A780B789A42A4D106ABA4
:1035C0005A784B789A429FD106AB9A788B789A4278
:1035D0009AD106ABCA78DB789A4295D106AB0A79C4
:1035E0001B799A4290D106AB4A795B799A4200D115
:1035F0008CE789E759460020A9E759460120A6E74C
:1036000059460220A3E78B467BE7594607209EE7F1
:10361000594620009BE7C046E013002010B582B059
:103620006B460C009A1D282102F022FB00280BD1CA
:103630006B46DA8813051B0D120507D5054A94461B
:10364000FA2263445343236002B010BDFA2253436D
:103650002360F9E700F0FFFFF0B5AE250F0089B059
:103660006D00C02201210400465D02F0BBFA002873
:1036700001D009B0F0BD200001A9FFF77BFE0028B2
:10368000F7D10122FF21200002F0ACFA0028F0D18E
:103690003A00B621200002F0EBFA0028E9D100221E
:1036A000FF21200002F09EFA0028E2D13200012121
:1036B000200002F097FA0028DBD16655D9E7C04612
:1036C000F0B50E00150087B00122FF21040002F0C2
:1036D00089FA002835D0A821002223004900625031
:1036E000513304316252FF330021002D11D02248A2
:1036F0008268002A0DD10027511C002F09D12C29E6
:1037000007D0B6329209920087580A00511C002F48
:10371000F5D005AA0292220057320091200029001C
:103720000196FF32FFF798FE002808D142230122BC
:10373000FF33E2544023FF33E6540133E55407B02E
:10374000F0BD00224F21200002F04CFA0028C2D127
:103750002C224E21200002F045FA0028BBD1002285
:10376000FF21200002F03EFA0028B4D1B422B62195
:10377000200002F037FAAEE7E0130020F0B5D6469D
:103780004F464646C0B582B01F000CAB1B78904632
:103790009A460DAB1B786A46994600230E00D371FA
:1037A000FF210122050002F01DFA00220400002181
:1037B000280002F017FA00220443FF21280002F03B
:1037C00011FA64B20443534664B2002E25D0002B94
:1037D00031D14B46002B38D10122FF21280002F0C5
:1037E00001FA012200210443280002F0FBF964B22F
:1037F0000022FF210443280002F0F4F96B46102256
:10380000DB7964B2934320430B9A40B2137002B049
:10381000E0BCBA46B146A846F0BD002B1ED14B46CF
:10382000002BD9D03B008022EE21280002F0F2F9D3
:10383000044364B2D0E7CB2128000A9A02F00CFAC4
:103840004B46044364B2002BC6D06B46EE212800E1
:10385000DA1D02F001FA044364B2BDE74246CB210F
:10386000280002F0BFF94B46044364B2002BB3D0EA
:10387000D8E7C046F0B54746CE4680B51F000023C6
:1038800005000E009046994687B0002F03D05D33A7
:10389000FF33C35C994602220121280002F0A2F9FD
:1038A000041E07D000233370200007B0C0BCB94607
:1038B000B046F0BD01220021280002F093F9041E59
:1038C000F0D1280000F0F0FB041EEBD1002128000D
:1038D000FFF792FD041EE5D100220021280002F02E
:1038E00081F9041EDED14346012B0ED03070002F2B
:1038F000DAD04A460121280002F074F9041ED3D11F
:10390000AE234A465B00EA54CEE7039316336B447A
:103910000290009300220023012128000196FFF766
:103920002DFF0028E3D00400BEE7C046F0B54746AF
:10393000CE4680B51F00AE235B00C35C87B09946BE
:1039400000266B468846150001210122DE75040021
:1039500002F048F9002806D043461E7007B0C0BCEC
:10396000B946B046F0BD41220021200002F03AF9EC
:10397000002803D0002342461370EFE7200000F038
:1039800093FB0028F6D100212000FFF735FD002829
:10399000F0D100220021200002F024F90028E9D112
:1039A000012F33D04246107002220121200002F084
:1039B00019F9002802D000232B70CFE70122002143
:1039C000200002F00FF90028F5D1200000F06CFB78
:1039D0000028F0D100212000FFF70EFD0028EAD1D9
:1039E00000220021200002F0FDF80028E3D1012F81
:1039F0001CD028704A460121200002F0F3F800286C
:103A0000ACD1AE234A465B00E254A7E717236B44D0
:103A100001934346039000930022002301212000DC
:103A20000297FFF7ABFE0028BED097E717236B4441
:103A300002900093002200230121200003970195AA
:103A4000FFF79CFE0028D5D088E7C046F0B54E466B
:103A50004546DE465746E0B595B091460CAA9446D9
:103A600011260023B422664410AD11932B703370DD
:103A70005200825A88460892A8225200835004328B
:103A80008352543AFF21FF3A824602F0ABF8041EFB
:103A900007D0200015B0F0BCBB46B246A946A046F0
:103AA000F0BD00224F21504602F09CF8041EF0D1D8
:103AB0002C224E21504602F095F8041EE9D1002236
:103AC000FF21504602F08EF8041EE2D1B422B62146
:103AD000504602F087F8041EDBD1002280215046B8
:103AE00002F080F8041ED4D1002332002900504691
:103AF000FFF71CFF041ECCD1A8235B00534407939F
:103B0000AB235B0053449B460027022301269C46BF
:103B10003B0003340722DF081340062F3CD03D0052
:103B200005975A460599525DA94238D0164227D1C9
:103B30006146114200D0BBE00421114200D0B5E043
:103B400000200139082717421BD1011D042813D07A
:103B50000837174215D1411D03280DD010371742E1
:103B60000FD1811D022807D057060AD4D209012897
:103B700002D0002A00D0C4E10135062DD1D10BE0DE
:103B80000021EB005B181A00B432C9499209920077
:103B90008A580691002A19D03224644279E71A41E2
:103BA0001100D2B2314200D0ADE1591C072BE3D055
:103BB00060461042E5D1991C062BDDD0042010424E
:103BC000DFD1D91C052BD7D01800BBE70722300066
:103BD0001A4090400200079DD908685C013C0243EE
:103BE0006A540133002C95D111931F00B021062394
:103BF0005046079A01F0D2FF041E00D049E7062381
:103C0000B02112AA504601F0DBFF0CAB1A7EA823AC
:103C100051465B00CB5C04009A42BDD10CAB5A7E8E
:103C20005223FF33CB5C9A42B6D10CAB9A7EA923C8
:103C30005B00CB5C9A42AFD10CABDA7E5423FF33EE
:103C4000CB5C9A42A8D10CAB1A7FAA235B00CB5C59
:103C50009A42A1D15623FF33CA5C0CAB5B7F9A42D8
:103C60009AD1002800D014E70CAA9446122363448A
:103C700019005046FFF7F0FC041E00D009E70CAB1A
:103C80005B8A089A934225D9A82352465B00D050FC
:103C90000433D0523B00B433069A9B099B00D3589F
:103CA000002B07D12B2F05D80137F3E7022168E756
:103CB000012166E7032611AB02935A4601215046C3
:103CC000079B01960097FFF7C7FB002800D1FEE095
:103CD0000400DEE6002305930C930CAB5B8A934251
:103CE00000D3E0E09B1ADA179B1853400B93032391
:103CF000099353460A9343460E934B4601250D9470
:103D00000F9307260622079912A804F003FCFC086B
:103D10003E402F2F00D93FE702239C4606339846AA
:103D20000833994610339A463300220026005C4639
:103D30009B46A35C96422FD01D4200D09AE061467C
:103D4000194200D099E00427002102201F4237D1F8
:103D5000C81C052919D047461F4231D1081D042926
:103D600013D04F461F422BD1481D03290DD0574673
:103D70001F4225D1881D022907D040271F421FD18D
:103D8000DB09012901D0002B7AD10132062AD0D1DA
:103D90003220404204007CE659460B411900DBB258
:103DA000294200D086E05946481C0729EDD09907E2
:103DB00006D45946881C0629E7D004271F42C7D0DD
:103DC000A346D7003F183B00B433069A9B099B00DB
:103DD000D3585A1E9341059A93426FD10722290066
:103DE0003A4091400A00099B07985E1CFB08C15CA1
:103DF0000A43C25402000A980623B021804601F00B
:103E0000CDFE002800D063E70CAA12239446634439
:103E100019004046FFF720FC002800D058E70CAB03
:103E20005A8A089C131BD9175B184B40A2421DD914
:103E30000E9AC24690460F9A0D9C91460B9A9A4252
:103E400021D343461E604B460C9A51461A704223BA
:103E50000122FF33CA5443461A684023FF33CA5431
:103E60004B461A78A0235B00CA5412E60137099624
:103E70000B9346E7A3460020A3E7A3460120A0E753
:103E8000A34607209DE7B02112AA0623504601F061
:103E900085FE0622050012A9079804F03BFB002DC1
:103EA0002AD1099ECDE7002300260C93C9E7C0461E
:103EB000E01300205E46A346300082E70A9B0D9C7B
:103EC0009A460E9B099E98460F9B9946B9E70CAA05
:103ED00012239446634419005046119FFFF7BCFB20
:103EE000002800D0F4E60CAB5B8A089A934205D810
:103EF00001230C930593F0E62C00CAE501230C93F3
:103F00009FE707213DE619003BE6C046F0B5CE46E7
:103F1000474680B50500160085B0032960D0042906
:103F200000D0BCE002AC2100FEF776FFE378002B66
:103F300046D105236B4400279846424601212800BC
:103F4000FEF7DAFD041E45D143461A78FA215301E3
:103F50009B1A5B019B181A01D31AFA225200904651
:103F60001B029844C900404603F05AFEFA2174012E
:103F7000A41BA400A419E40024188900404603F0FF
:103F80004FFE0100200003F04BFEC0190022002864
:103F90000CD001380023FF2806D9013340089BB21A
:103FA000FF28FAD81B029BB21B189AB27121280075
:103FB00001F024FE041E0DD184235B00EE5009E0C5
:103FC00005236B441A00002128009846FEF794FD53
:103FD000041E53D0200005B0C0BCB946B046F0BDA9
:103FE00005236B4498461A000021FEF785FD4346E1
:103FF0001A78FA2153019B1A5B019B181A01D31AF4
:10400000FA22520091461B02994473019B1B9B00AC
:104010009B19DB00C900070004004846984603F0DE
:10402000FFFDFA2180448900484603F0F9FD0100B4
:10403000404603F0F5FD00040022010C00280CD0DE
:104040000139FF292ED90023013349089BB2FF29EA
:10405000FAD81A0292B2521892B26B46DA808223D0
:104060005B00EA52002FB5D15121280001F0C6FDB6
:10407000041EAFD188235B00EE50ABE76B465121A5
:1040800028009A1D01F0F4FD041EA3D16B466A4678
:10409000DB8897791B0A9F400137BFB24DE70424A4
:1040A000644297E70022D6E770B582B06B46FA24E7
:1040B000DD1D002306002B70E40008E02B78012BA7
:1040C0000BD0013C002C0AD0300001F0E9FD2900A2
:1040D0003000FFF783F80028F0D002B070BD072051
:1040E0004042FAE7F0B557464546DE464E460023C5
:1040F000E0B595B00B930C931D33FF33C35C040004
:104100000F009846072B07D1002015B0F0BCBB4626
:10411000B246A946A046F0BD0122802101F062FD11
:1041200001220500FF21200001F05CFD002200219A
:104130000543200001F056FD6DB20622FF21054324
:10414000200001F04FFD6DB28321054309AA200034
:1041500001F082FD08AB1A7904236DB21A43832162
:104160000543200001F03EFD6DB20722FF2105430B
:10417000200001F037FD6DB20122812105432000AE
:1041800001F030FD6DB20543200001F089FD6DB2F4
:10419000012205438021200001F024FD01231A00A3
:1041A0006DB205433A406DB201923B4203D04246A4
:1041B000134200D1D1E300230593049302231A0094
:1041C0003A4002923B4203D04246134200D1FCE106
:1041D00004231A003A4003923B4203D04246134262
:1041E00000D191E0002300269B460022812120007F
:1041F00001F0F8FC0622FF210543200001F0F2FC4B
:104200006DB28321054309AA200001F025FD08AB0A
:104210001A7904236DB29A4383210543200001F0EB
:10422000E1FC6DB20122FF210543200001F0DAFC20
:104230006DB2012200210543200001F0D3FC6DB2D4
:104240000022FF210543200001F0CCFC6DB20543A4
:1042500000228021200001F0C5FC6DB2284340B24D
:10426000002800D051E7019B002B10D04346DB070C
:104270000DD440232000049AFF33E254059A013301
:104280005730E2540DA90622FF3004F043F9029B97
:10429000002B12D043469B070FD408AB5A791E233C
:1042A000FF33E25408AB9A7920008F2320305B0063
:1042B000E2540FA9FF301AF0B7FF039B002B1DD06B
:1042C00043465B071AD4A2230B9A5B00E2500C9A78
:1042D0000433E2505B46A6225B025200A350002347
:1042E000002E0AD0E04B9C46664473019B1B9B004A
:1042F0009B19DB001B095B421BB2636043468E22A5
:104300003B435200A354FFE67B229421200001F09E
:1043100069FC284343B2002283212000994601F022
:1043200061FC061E17D100239A4608ABDD1DFA2357
:10433000DB009B46564603E001365E4500D1E0E3D4
:104340002A008321200001F087FC2B780343DBB295
:10435000002BF1D0060001228321200001F042FC55
:104360004B4633431E00902106430BAA200001F068
:104370008BFC76B27C2294210643200001F032FCB3
:1043800076B2064373B2002283212000994601F0E1
:1043900029FC061E17D100239A4608ABDD1DFA231F
:1043A000DB009B46564603E001365E4500D1AEE396
:1043B0002A008321200001F04FFC2B780343DBB25D
:1043C000002BF1D0060001228321200001F00AFC1D
:1043D0004B4633431E00902106430CAA200001F0F7
:1043E00053FC76B2732294210643200001F0FAFBBD
:1043F00076B2064373B2002283212000994601F071
:10440000F1FB061E17D100239A4608ABDD1DFA23E7
:10441000DB009B46564603E001365E4500D16AE369
:104420002A008321200001F017FC2B780343DBB224
:10443000002BF1D0060001228321200001F0D2FBE5
:104440004B4633431E000AAB1A000643902120005E
:10445000009301F019FC0A9B75B21B061B0C742219
:104460009421054320009B4601F0BCFB6DB205433F
:104470006BB2002283212000069301F0B3FB061EDD
:1044800017D10023994608ABDD1DFA23DB009A46BD
:104490004E4603E00136564500D141E32A00832110
:1044A000200001F0D9FB2B780343DBB2002BF1D0C5
:1044B000060001228321200001F094FB069D90213B
:1044C0003543009A0543200001F0DEFB5A460A9B63
:1044D0006DB21B0E1A4394210543934620007522AA
:1044E00001F080FB6DB205436BB2002283212000F6
:1044F000069301F077FB061E17D10023994608ABFF
:10450000DD1DFA23DB009A464E4603E00136564590
:1045100000D1E3E22A008321200001F09DFB2B78EB
:104520000343DBB2002BF1D00600012283212000DF
:1045300001F058FB069D90213543009A0543200069
:1045400001F0A2FB0A9B6DB21B061B0C7622942184
:1045500005432000069301F045FB6DB205436BB2A5
:10456000002283212000079301F03CFB061E17D197
:104570000023994608ABDD1DFA23DB009A464E4620
:1045800003E00136564500D1C7E22A00832120000E
:1045900001F062FB2B780343DBB2002BF1D0060065
:1045A00001228321200001F01DFB079D902135434E
:1045B0000543009A200001F067FB0A9E069B6DB23E
:1045C0000543360E6DB21E430FE6022294212000F1
:1045D00001F008FB284343B20022832120009946C2
:1045E00001F000FB0FAE051E15D100239A46FA23F9
:1045F000DB009B46554603E001355D4500D183E273
:1046000032008321200001F027FB33780343DBB223
:10461000002BF1D0050001228321200001F0E2FAF5
:104620004B462B431D0008AB5A1D9021054320002B
:1046300001F012FB6DB27B2294210543200001F0B2
:10464000D1FA6DB205436BB2002283212000994656
:1046500001F0C8FA051E18D100239A46FA23DB00A0
:104660009B46554606E0C04600E7FFFF01355D4525
:1046700000D143E232008321200001F0EDFA3378CB
:104680000343DBB2002BF1D005000122832120007F
:1046900001F0A8FA4B462B431D0008AB9A1D902150
:1046A0000543200001F0D8FA6DB27722942105432A
:1046B000200001F097FA6DB205436BB2002283210E
:1046C0002000994601F08EFA051E15D100239A4666
:1046D000FA23DB009B46554603E001355D4500D1DA
:1046E00021E232008321200001F0B6FA337803433F
:1046F000DBB2002BF1D0050001228321200001F064
:1047000071FA4B462B431D000AAB1A00902105435A
:104710002000009301F0B8FA7F210A9B6DB2054397
:10472000980C084000025A0E02439146D80A0840ED
:10473000020448469246E84A6DB2104002005046D4
:1047400002431809014012020906120A0A430F9295
:104750007822DB00134008AA1371942178222000EC
:1047600001F040FA05436BB200228321200003933D
:1047700001F038FA814600281BD108ABDD1DFA2371
:10478000DB009B46330026009A462C00050003E020
:1047900001355D4500D1A9E122008321300001F0FF
:1047A0005BFA23780343DBB2002BF1D0340081465F
:1047B000564601228321200001F014FA4B46039D46
:1047C00090211D43009A0543200001F05DFA6DB26F
:1047D00005436BB2994608AA0A9B1279590F8918AA
:1047E0007F22980D10400002DD0BC9B21540014335
:1047F000180A2D041040000629430143109159085E
:104800000A40327240229B01134008AA137194217E
:104810007922200001F0E6F94D4605436BB20022F3
:1048200083212000039301F0DDF9814600281BD18C
:1048300008ABDD1DFA23DB009B46330026009A46B9
:104840002C00050003E001355D4500D16EE122003A
:104850008321300001F000FA23780343DBB2002B00
:10486000F1D034008146564601228321200001F018
:10487000B9F94B46039D90211D43009A0543200042
:1048800001F002FA0A9B08A909799A0E521872726D
:104890007F22D90C1140B172190B1140F1725909E4
:1048A0000A4032737C229B0013406DB208AA137138
:1048B00094217A220543200001F094F96DB205435A
:1048C0006BB2002283212000039301F08BF9814613
:1048D00000281BD108ABDD1DFA23DB009B4633000B
:1048E00026009A462C00050003E001355D4500D105
:1048F000F7E022008321300001F0AEF92378034372
:10490000DBB2002BF1D034008146564601228321D0
:10491000200001F067F94B46039D90211D43009A4A
:104920000543200001F0B0F90A9A08A90979930F0C
:104930005B187F217373D30D0B40B373130C0B40C3
:10494000F373530A0B40337493080B4073740023C2
:104950006DB205436DB2B3743AE46B22942120002A
:1049600001F040F9284343B20022832120009946F8
:1049700001F038F9051E16D100239A46FA23DB0010
:104980009B4655460FAE03E001355D4500D19FE0E3
:1049900032008321200001F05FF933780343DBB25A
:1049A000002BF1D0050001228321200001F01AF92B
:1049B0004B462B431D000AAB1A00902105432000F3
:1049C000009301F061F90A9B6DB25A04520E1B0468
:1049D000DB0F94210543049220002422059301F06B
:1049E00001F96DB205436BB2002283212000994684
:1049F00001F0F8F8051E16D100239A46FA23DB00D1
:104A00009B4655460FAE03E001355D4500D181E080
:104A100032008321200001F01FF933780343DBB219
:104A2000002BF1D0050001228321200001F0DAF8EB
:104A30004B462B431D009021009A0543200001F0B6
:104A400023F90A9B6DB21BBA25229421054320004D
:104A50000D9301F0C7F86DB205436BB200228321BC
:104A60002000994601F0BEF8051E15D100239A4694
:104A7000FA23DB009B4655460FAE02E001355D454B
:104A800023D032008321200001F0E6F8337803437D
:104A9000DBB2002BF2D0050001228321200001F0BF
:104AA000A1F84B462B431D009021009A054320009E
:104AB00001F0EAF80A9B6DB20DAA190E05431B0C12
:104AC0006DB211715371FFF779FB07256D42E3E772
:104AD00007256D4267E7C046FFFF00FF07267642C5
:104AE00023E5073B3400994656460FE7073B340061
:104AF000994656465DE6072676429CE407256D42B8
:104B0000C3E50726764226E407256D4283E507269E
:104B1000764258E407256D4285E7072676423FE551
:104B200007267642C5E407256D42E5E5073B3400DC
:104B30009946564698E6C046F0B5C64600B584B0DC
:104B4000002315006A460600D370938002290BD912
:104B500003294DD0042927D00020002428602000FC
:104B600004B080BCB846F0BD971C3A000021FDF7A8
:104B7000C3FF041E65D0FA213A78890053019B1ABD
:104B80005B019B181801C01A0002F530FF3003F0DA
:104B900047F86B46DB7801335843FA21F53089003A
:104BA000FF3003F03DF8D9E702AC2100FEF734F9FD
:104BB000E378002B4DD06B469F1C3A00002130005B
:104BC000FDF79AFF0023041E984664D0FA213A7834
:104BD000890053019B1A5B019B181801C01A00023F
:104BE000F530FF3003F01CF8434643431800D4E788
:104BF000971C3A000021FDF77FFF04000020002CE5
:104C0000ACD13A0000213000FDF776FF041E55D0EC
:104C10006B466A46FA219B8816793A781B0A9E40B1
:104C200053019B1A5B019B181801C01A0002F53052
:104C3000FF30890002F0F4FF01363604360C704371
:104C4000ABE76B4646213000DA1C01F005F80400A2
:104C500091E7002398466B469F1C3A0001213000E3
:104C6000FDF74AFF041E04D04346584283B29846DB
:104C7000ACE76B4671219A1D300000F0F9FF6B46DE
:104C8000DA889B79120A9340424601339B1A9BB201
:104C9000040098469AE701AA5121300000F0E8FF8D
:104CA0006B469A881B79120A934001339BB2041E0B
:104CB0009846D2D05B429BB2984687E7512130009C
:104CC00001AA00F0D5FF0400A2E7C046F0B55746A0
:104CD0004E46DE464546E0B587B002AB9F1D002339
:104CE000060014003B70D30754D4002922D11300CE
:104CF0000C3B062B4ED80C2A4FD00E2A5BD0102A24
:104D00003AD0122A00D13CE15208013AD3B2984677
:104D10000321300005AAFFF70FFF051E59D08A2393
:104D20005B00F454280007B0F0BCBB46B246A9466D
:104D3000A046F0BD01292DD11300083B062B29D830
:104D4000082A00D12CE10A2A00D15CE10C2A00D10A
:104D50008CE10E2A00D1BCE15308013BDBB298463E
:104D60000421300004AAFFF7E7FE051E00D1E5E0AC
:104D700086235B00F454D5E74022572100F032FF30
:104D800008225621300000F02DFF051ECAD107234E
:104D90009846BDE704256D42C4E71822572100F06C
:104DA00021FF08225621300000F01CFF051EB9D15A
:104DB00005239846ACE73022572100F013FF082264
:104DC0005621300000F00EFF051EABD10623984699
:104DD0009EE702AB187200213000DA1DFDF78CFE51
:104DE000051E9CD14621300004AA00F035FF02AB1D
:104DF0001B7A0500994602ABDB799B46002800D060
:104E00008DE742465021300000F0ECFE051E00D038
:104E100085E7059B00219A4604AA3000FDF76CFE49
:104E200002AB1A7A514653019B1A5B019B181A0177
:104E3000D31A1B02F533FF331A0053465B015B1A8A
:104E4000FA219B005344DB000190C90005001000CB
:104E50009846009202F0E4FEFA218044890000980E
:104E600002F0DEFE0100404602F0DAFE00040022FD
:104E7000010C00280BD001390023FF2904D901338C
:104E800049089BB2FF29FAD81A02521892B282231B
:104E90005B00F252019B002B00D040E75121300013
:104EA00000F0ACFE051E00D039E7882352465B00B7
:104EB000F2500021300004AAFDF71EFE051E00D0AE
:104EC0002DE7FA214900884602AB1A7A9A4B4D46E3
:104ED0005A4390445A4653435B181800491802F04D
:104EE0009FFEFA2101354543F535FF35280089003D
:104EF00002F096FE6D1AFA214046C90002F090FEBB
:104F0000FA212D188900404602F08AFE010028008F
:104F100002F086FE802381B2FF225B00994201D815
:104F20000138C2B282235B00F2524621300000F009
:104F300059FE8A235B000500F45410E042467021BC
:104F4000300000F04FFE051E00D011E704213000B4
:104F5000049AFEF7DBFF862305005B00F454002D66
:104F600000D0DFE63000F168FDF7BEFD051E00D081
:104F7000D8E60123002239003000FEF77BFC050053
:104F8000D0E65022572100F02DFE08225621300095
:104F900000F028FE051E00D0C4E608239846B7E6B8
:104FA0001022482100F01EFE08224721300000F0A8
:104FB00019FE022205003221300000F013FE0C22FF
:104FC00030210543300000F00DFE6DB20122FF21BB
:104FD0000543300000F006FE6DB23022302105435B
:104FE000300000F0FFFD6DB205430022FF213000CC
:104FF00000F0F8FD6DB205436DB2002D00D091E6D2
:1050000003239846ACE62822482100F0EBFD082255
:105010004721300000F0E6FD032205003221300078
:1050200000F0E0FD092230210543300000F0DAFDF8
:105030006DB20122FF210543300000F0D3FD6DB2B7
:10504000202230210543300000F0CCFD6DB2054335
:105050000022FF21300000F0C5FD6DB205436DB2A6
:10506000002D00D05EE60423984679E638224821D8
:1050700000F0B8FD08224721300000F0B3FD032204
:1050800005003221300000F0ADFD0822302105433B
:10509000300000F0A7FD6DB20122FF210543300072
:1050A00000F0A0FD6DB2202230210543300000F059
:1050B00099FD6DB205430022FF21300000F092FD02
:1050C0006DB205436DB2002D00D02BE60523984646
:1050D00046E64822482100F085FD0822472130009D
:1050E00000F080FD032205003221300000F07AFD3F
:1050F000072230210543300000F074FD6DB201221B
:10510000FF210543300000F06DFD6DB220223021FB
:105110000543300000F066FD6DB205430022FF211B
:10512000300000F05FFD6DB205436DB2002D00D080
:10513000F8E50623984613E6002F3A0030B5140030
:1051400083B0002912D001290DD16B46DD1D2A0044
:10515000702100F081FD002803D12B7801335B0022
:10516000237003B030BD04204042FAE76B46DD1DDA
:105170002A00502100F070FDEDE7C046F0B5CE46A4
:105180004746002380B585B002AD0F002900060018
:105190000193FDF741FE041E0ED1424B6A789846FA
:1051A0002B78B8441343AA7813430BD1EB78002B28
:1051B00052D12B79002B6AD1200005B0C0BCB94672
:1051C000B046F0BD6B460021D8709A1C3000FDF748
:1051D00093FC002801D00400EEE76B464621DA1C60
:1051E000300000F039FD6B46FA219A788146530170
:1051F0009B1A5B019B181801C01A0002F530890048
:10520000FF3002F00DFD6B46FA21DB788900013397
:105210005843F530FF3002F003FD4B46002B3FD1E1
:105220002B78002B06D0204BC31898452CD942462A
:10523000D31A9846AB78002B20D16B78002BB5D0D1
:10524000A5239B009C46604480451DD943461B1AFC
:105250009846EB78002BACD001AA03213000FFF771
:105260006BFCA52292009446019B634498450BD9A0
:105270000028B0D14246D31A98469AE70B4B9C4679
:10528000604440008045E1D80424644294E7084A21
:10529000042130004244FEF739FEF76004008BE73A
:1052A0004C4689E7CAF4FFFF4E020000B20200003C
:1052B000DAFDFFFFF0B5C646002300B586B00393C4
:1052C000474B04AD0B600E0029000700FDF7A4FD5D
:1052D000041E0DD16A782B781343AA7813430CD19E
:1052E000EB78002B57D12B79002B65D13368FB600D
:1052F000200006B080BCB846F0BD6B460021187295
:10530000DA1D3800FDF7F8FB002801D00400EFE7B4
:10531000462102AA380000F09FFC6B46FA21DA7998
:10532000804653019B1A5B019B181801C01A0002AA
:10533000F5308900FF3002F073FC6B46FA211B7ACE
:10534000890001335843F530FF3002F069FC4346D1
:10535000002B42D12B78002B05D0224A336894468B
:1053600063441B183360AB78002B0AD16B78002B99
:10537000B6D0A52292009446336863441B1833606C
:10538000AEE7194B9C463368604440001B183360FD
:10539000EB78002BA7D003AA03213800FFF7CCFB42
:1053A000A5239B009C46039A336862449B18336094
:1053B000002898D004009BE702AA04213800FFF7D8
:1053C000BBFB0A4A029B9446326863449B183360D5
:1053D000002800D18BE704008AE7444688E7C046EE
:1053E000360B00004E020000B20200002602000050
:1053F000F0B5C64600B50D7807000E0082B0002D4E
:105400001ED00024631CFF2D07D0042D1AD90420C0
:10541000404202B080BCB846F0BDF35CA21C022B37
:1054200043D024D8002B32D0B25C3319DB7812027F
:105430009B18B12252000434BB52355D002DE1D1DE
:105440000020E6E7F35C023498462A00311901A8EF
:1054500003F060F864192B004146380001AA00F0FF
:105460009DFB355D002DD4D00028CBD0D1E7032B98
:10547000CDD1B25C3319DB7812029B18B4225200F2
:105480000434BB52355D002DBCD10020C1E7B25CB5
:105490003319DB7812029B18B02252000434BB523D
:1054A000355D002DAED10020B3E7B25C3319DB7857
:1054B00012029B18B22252000434BB52355D002DFB
:1054C000A0D10020A5E7C046F0B5C64600B5ACB0F7
:1054D0000C000EA91600FDF73FF91D9B0500A34225
:1054E00007D324992800090C31602CB080BCB84641
:1054F000F0BD239BA34238D9382268461DA903F08A
:1055000009F8019B9C4234D9029B9C4233D9039BEE
:105510009C422CD9049B9C422FD9059BA3429B41C2
:105520005B4205330EA98C4619000E311A00890022
:1055300061444F6819000D329200624413318900B2
:10554000526861448968BA42CCD014339B006344EA
:105550009B68C81AB91A090A984602F061FB3F1BFA
:105560003F0A474339004144BCE72A99BAE703237D
:10557000D8E70123D6E70223D4E70423D2E7C046C5
:10558000F0B55746DE464E464546E0B50B6989B054
:105590009A4606AB8946CC68D91D07009346FDF7AD
:1055A0005BFC002804D106ABDB79002B00D08AE13C
:1055B00006AB3800D91DFDF74FFC804600283ED1D0
:1055C000802212029446002263011B1B9B001B19C0
:1055D000DB0063441B0C009306ABDB790392002BCA
:1055E00011D04B469A8ABB69534380331B0A5A0138
:1055F000D21A9200D318DB001A000393C8239B032E
:105600009A4200D975E184235B00FB5801938623FD
:105610005B00F95C0433FB5802938A235B00FA5C5D
:105620000B00083B581E834102330593009B002B5F
:105630000DD1B24B5A461360B6225200BB504046C1
:1056400009B0F0BCBB46B246A946A046F0BD4B012E
:105650005B1A5B015B181901CB1A1B02F533FF3390
:10566000049353019B1A5B019B181E01F61A029BBF
:10567000FA219C4636025D01F536ED1AFF36300000
:10568000C900AD00654402F0CBFAFA21ED002D18F7
:105690008900300002F0C4FA0100280002F0C0FACC
:1056A000019BFA219C465D01ED1A0600C900049891
:1056B000AD00654402F0B4FAFA21ED002D1889001E
:1056C000049802F0ADFA0100280002F0A9FAFA21CC
:1056D000059B36187343D802F5308900FF3002F07D
:1056E0009FFAFA21864B89005843F530FF3002F0CB
:1056F00097FA53468034240A44435801C01A800064
:105700005044C000000C0099000402F089FA7D4B5F
:105710008034984200D9E2E083001B181D01ED1A85
:10572000ED00240A00D1D8E063001B199B008024FF
:105730001A00E405A4089C42FCD80026A3197608A8
:10574000934201D8D21A3619A408F7D14B461A89C8
:105750001B7E7600002B00D0BDE0FA2149008A466E
:10576000009B69481B04504368499A4402F058FA68
:10577000039B8146FA21580053468900181A02F00B
:105780004FFAFA21030289005046009302F048FACA
:105790000100009802F044FA80234A4600025B02AE
:1057A0001B1A5A431300802212029A1880235B02AC
:1057B0009C46120C624452085243920B93009B1871
:1057C0009A009A1880231B029C4652016244120CD4
:1057D000524380231B02EB1880251B0C5B439B1854
:1057E000ED05AB4202D2AD08AB42FCD32A196408E6
:1057F0009A4201D89B1A6419AD08F7D1200464219C
:10580000323002F00DFA310002F00AFA404B414CFE
:105810009C464443029B64449C46FA21019EC90075
:105820006644F536FF36300002F0FAF9C8235B0310
:105830009946FA2181448900300002F0F1F9010013
:10584000484602F0EDF9344B06009C4253D8200044
:10585000324902F0E5F9404304008023DB059B0850
:10586000B342FCD8002B11D000201A184008B242D5
:1058700001D8B61AC0189B08F7D1FA210002F530FA
:10588000FF30890002F0CCF9404324188023DB0567
:105890009C4205D29B08A342FCD8002B00D1C9E64C
:1058A0005A196D08944201D3A41AED189B08F7D138
:1058B0006B015B1B9B00114A5B19DB00934200D814
:1058C000B8E61300B6E64B469A8ABB695343803369
:1058D0001B0AE4186CE6124A7BE7013424E718003F
:1058E00083001B181D01ED1AED00240A00D01BE7F0
:1058F000F3E7039387E6E1242406AEE7AE878F0241
:1059000077060000666666009A9906005C12000041
:1059100088130000B50B00000F279F2410270000FC
:1059200000C40900F0B54E465746DE464546E0B590
:105930008BB0994602AB9E1D0023019204AF02AAD0
:10594000D3715372538133703B7009934906914B65
:105950000D0FEB4001221A4000920021320004009A
:10596000FDF7CCFA33789A46002B5BD0002838D06C
:105970003B78002B5FD100239A469B460023984634
:1059800002AB01212000DA1DFDF7B8FA002821D171
:105990003378002B01D101339A4626235246E25434
:1059A000042D6CD002ABDB795A425341DBB2272283
:1059B000A3543B78002B01D101339B4628235A4640
:1059C000E25402AB5B7A002B01D1013398462923C4
:1059D0004246E2540BB0F0BCBB46B246A946A046D4
:1059E000F0BD2000149905AAFFF7CAFD0028BFD119
:1059F000149B2000196909AAFFF766FD0028B7D19A
:105A0000099B149A00215381200006AAFDF7B0FAE1
:105A10000022069B9246002B04D0059A93429B419C
:105A20005B429A4600280CD03B78002B24D0002300
:105A30009B469846A4E700239A4600239B46984637
:105A40009EE73A0002212000FDF758FA3B789B467A
:105A5000002B3CD00028EAD10221200007AAFDF744
:105A600087FA00280DD0BA2202AB5B8952005B0294
:105A7000A350079A002A71D100239B467EE7012399
:105A800095E70122FF21200000F0ACF80028EAD1C0
:105A900002AA94460A2363441A00B621200000F0AB
:105AA000E7F80028DFD10022FF21200000F09AF85B
:105AB000BA22002102AB5B8952005B02A350079A15
:105AC0008B46002A03D09A42924153429B460028BB
:105AD00000D053E702AA9446092363441A00032125
